{
  "_format": "hh-sol-artifact-1",
  "contractName": "CraigCoin",
  "sourceName": "contracts/CraigCoin.sol",
  "abi": [
    {
      "inputs": [
        {
          "internalType": "address",
          "name": "owner",
          "type": "address"
        }
      ],
      "stateMutability": "nonpayable",
      "type": "constructor"
    },
    {
      "anonymous": false,
      "inputs": [
        {
          "indexed": true,
          "internalType": "address",
          "name": "owner",
          "type": "address"
        },
        {
          "indexed": true,
          "internalType": "address",
          "name": "spender",
          "type": "address"
        },
        {
          "indexed": false,
          "internalType": "uint256",
          "name": "value",
          "type": "uint256"
        }
      ],
      "name": "Approval",
      "type": "event"
    },
    {
      "anonymous": false,
      "inputs": [
        {
          "indexed": true,
          "internalType": "bytes32",
          "name": "role",
          "type": "bytes32"
        },
        {
          "indexed": true,
          "internalType": "bytes32",
          "name": "previousAdminRole",
          "type": "bytes32"
        },
        {
          "indexed": true,
          "internalType": "bytes32",
          "name": "newAdminRole",
          "type": "bytes32"
        }
      ],
      "name": "RoleAdminChanged",
      "type": "event"
    },
    {
      "anonymous": false,
      "inputs": [
        {
          "indexed": true,
          "internalType": "bytes32",
          "name": "role",
          "type": "bytes32"
        },
        {
          "indexed": true,
          "internalType": "address",
          "name": "account",
          "type": "address"
        },
        {
          "indexed": true,
          "internalType": "address",
          "name": "sender",
          "type": "address"
        }
      ],
      "name": "RoleGranted",
      "type": "event"
    },
    {
      "anonymous": false,
      "inputs": [
        {
          "indexed": true,
          "internalType": "bytes32",
          "name": "role",
          "type": "bytes32"
        },
        {
          "indexed": true,
          "internalType": "address",
          "name": "account",
          "type": "address"
        },
        {
          "indexed": true,
          "internalType": "address",
          "name": "sender",
          "type": "address"
        }
      ],
      "name": "RoleRevoked",
      "type": "event"
    },
    {
      "anonymous": false,
      "inputs": [
        {
          "indexed": true,
          "internalType": "address",
          "name": "from",
          "type": "address"
        },
        {
          "indexed": true,
          "internalType": "address",
          "name": "to",
          "type": "address"
        },
        {
          "indexed": false,
          "internalType": "uint256",
          "name": "value",
          "type": "uint256"
        }
      ],
      "name": "Transfer",
      "type": "event"
    },
    {
      "inputs": [],
      "name": "BURNER_ROLE",
      "outputs": [
        {
          "internalType": "bytes32",
          "name": "",
          "type": "bytes32"
        }
      ],
      "stateMutability": "view",
      "type": "function"
    },
    {
      "inputs": [],
      "name": "DEFAULT_ADMIN_ROLE",
      "outputs": [
        {
          "internalType": "bytes32",
          "name": "",
          "type": "bytes32"
        }
      ],
      "stateMutability": "view",
      "type": "function"
    },
    {
      "inputs": [],
      "name": "MINTER_ROLE",
      "outputs": [
        {
          "internalType": "bytes32",
          "name": "",
          "type": "bytes32"
        }
      ],
      "stateMutability": "view",
      "type": "function"
    },
    {
      "inputs": [
        {
          "internalType": "address",
          "name": "owner",
          "type": "address"
        },
        {
          "internalType": "address",
          "name": "spender",
          "type": "address"
        }
      ],
      "name": "allowance",
      "outputs": [
        {
          "internalType": "uint256",
          "name": "",
          "type": "uint256"
        }
      ],
      "stateMutability": "view",
      "type": "function"
    },
    {
      "inputs": [
        {
          "internalType": "address",
          "name": "spender",
          "type": "address"
        },
        {
          "internalType": "uint256",
          "name": "amount",
          "type": "uint256"
        }
      ],
      "name": "approve",
      "outputs": [
        {
          "internalType": "bool",
          "name": "",
          "type": "bool"
        }
      ],
      "stateMutability": "nonpayable",
      "type": "function"
    },
    {
      "inputs": [
        {
          "internalType": "address",
          "name": "account",
          "type": "address"
        }
      ],
      "name": "balanceOf",
      "outputs": [
        {
          "internalType": "uint256",
          "name": "",
          "type": "uint256"
        }
      ],
      "stateMutability": "view",
      "type": "function"
    },
    {
      "inputs": [
        {
          "internalType": "address",
          "name": "from",
          "type": "address"
        },
        {
          "internalType": "uint256",
          "name": "amount",
          "type": "uint256"
        }
      ],
      "name": "burn",
      "outputs": [],
      "stateMutability": "nonpayable",
      "type": "function"
    },
    {
      "inputs": [],
      "name": "decimals",
      "outputs": [
        {
          "internalType": "uint8",
          "name": "",
          "type": "uint8"
        }
      ],
      "stateMutability": "view",
      "type": "function"
    },
    {
      "inputs": [
        {
          "internalType": "address",
          "name": "spender",
          "type": "address"
        },
        {
          "internalType": "uint256",
          "name": "subtractedValue",
          "type": "uint256"
        }
      ],
      "name": "decreaseAllowance",
      "outputs": [
        {
          "internalType": "bool",
          "name": "",
          "type": "bool"
        }
      ],
      "stateMutability": "nonpayable",
      "type": "function"
    },
    {
      "inputs": [
        {
          "internalType": "bytes32",
          "name": "role",
          "type": "bytes32"
        }
      ],
      "name": "getRoleAdmin",
      "outputs": [
        {
          "internalType": "bytes32",
          "name": "",
          "type": "bytes32"
        }
      ],
      "stateMutability": "view",
      "type": "function"
    },
    {
      "inputs": [
        {
          "internalType": "bytes32",
          "name": "role",
          "type": "bytes32"
        },
        {
          "internalType": "address",
          "name": "account",
          "type": "address"
        }
      ],
      "name": "grantRole",
      "outputs": [],
      "stateMutability": "nonpayable",
      "type": "function"
    },
    {
      "inputs": [
        {
          "internalType": "bytes32",
          "name": "role",
          "type": "bytes32"
        },
        {
          "internalType": "address",
          "name": "account",
          "type": "address"
        }
      ],
      "name": "hasRole",
      "outputs": [
        {
          "internalType": "bool",
          "name": "",
          "type": "bool"
        }
      ],
      "stateMutability": "view",
      "type": "function"
    },
    {
      "inputs": [
        {
          "internalType": "address",
          "name": "spender",
          "type": "address"
        },
        {
          "internalType": "uint256",
          "name": "addedValue",
          "type": "uint256"
        }
      ],
      "name": "increaseAllowance",
      "outputs": [
        {
          "internalType": "bool",
          "name": "",
          "type": "bool"
        }
      ],
      "stateMutability": "nonpayable",
      "type": "function"
    },
    {
      "inputs": [
        {
          "internalType": "address",
          "name": "to",
          "type": "address"
        },
        {
          "internalType": "uint256",
          "name": "amount",
          "type": "uint256"
        }
      ],
      "name": "mint",
      "outputs": [],
      "stateMutability": "nonpayable",
      "type": "function"
    },
    {
      "inputs": [],
      "name": "name",
      "outputs": [
        {
          "internalType": "string",
          "name": "",
          "type": "string"
        }
      ],
      "stateMutability": "view",
      "type": "function"
    },
    {
      "inputs": [
        {
          "internalType": "bytes32",
          "name": "role",
          "type": "bytes32"
        },
        {
          "internalType": "address",
          "name": "account",
          "type": "address"
        }
      ],
      "name": "renounceRole",
      "outputs": [],
      "stateMutability": "nonpayable",
      "type": "function"
    },
    {
      "inputs": [
        {
          "internalType": "bytes32",
          "name": "role",
          "type": "bytes32"
        },
        {
          "internalType": "address",
          "name": "account",
          "type": "address"
        }
      ],
      "name": "revokeRole",
      "outputs": [],
      "stateMutability": "nonpayable",
      "type": "function"
    },
    {
      "inputs": [
        {
          "internalType": "bytes4",
          "name": "interfaceId",
          "type": "bytes4"
        }
      ],
      "name": "supportsInterface",
      "outputs": [
        {
          "internalType": "bool",
          "name": "",
          "type": "bool"
        }
      ],
      "stateMutability": "view",
      "type": "function"
    },
    {
      "inputs": [],
      "name": "symbol",
      "outputs": [
        {
          "internalType": "string",
          "name": "",
          "type": "string"
        }
      ],
      "stateMutability": "view",
      "type": "function"
    },
    {
      "inputs": [],
      "name": "totalSupply",
      "outputs": [
        {
          "internalType": "uint256",
          "name": "",
          "type": "uint256"
        }
      ],
      "stateMutability": "view",
      "type": "function"
    },
    {
      "inputs": [
        {
          "internalType": "address",
          "name": "to",
          "type": "address"
        },
        {
          "internalType": "uint256",
          "name": "amount",
          "type": "uint256"
        }
      ],
      "name": "transfer",
      "outputs": [
        {
          "internalType": "bool",
          "name": "",
          "type": "bool"
        }
      ],
      "stateMutability": "nonpayable",
      "type": "function"
    },
    {
      "inputs": [
        {
          "internalType": "address",
          "name": "from",
          "type": "address"
        },
        {
          "internalType": "address",
          "name": "to",
          "type": "address"
        },
        {
          "internalType": "uint256",
          "name": "amount",
          "type": "uint256"
        }
      ],
      "name": "transferFrom",
      "outputs": [
        {
          "internalType": "bool",
          "name": "",
          "type": "bool"
        }
      ],
      "stateMutability": "nonpayable",
      "type": "function"
    }
  ],
  "bytecode": "0x60806040523480156200001157600080fd5b5060405162002b7f38038062002b7f833981810160405281019062000037919062000384565b6040518060400160405280600981526020017f4372616967436f696e00000000000000000000000000000000000000000000008152506040518060400160405280600281526020017f43430000000000000000000000000000000000000000000000000000000000008152508160039080519060200190620000bb929190620002bd565b508060049080519060200190620000d4929190620002bd565b505050620001097f9f2df0fed2c77648de5860a4cc508cd0818c85b8b8a1ab4ceeef8d981c8956a6826200014260201b60201c565b6200013b7f3c11d16cbaffd01df69ce1c404f6340ee057498f5f00246190ea54220576a848826200014260201b60201c565b5062000463565b6200015482826200015860201b60201c565b5050565b6200016a82826200024a60201b60201c565b620002465760016005600084815260200190815260200160002060000160008373ffffffffffffffffffffffffffffffffffffffff1673ffffffffffffffffffffffffffffffffffffffff16815260200190815260200160002060006101000a81548160ff021916908315150217905550620001eb620002b560201b60201c565b73ffffffffffffffffffffffffffffffffffffffff168173ffffffffffffffffffffffffffffffffffffffff16837f2f8788117e7eff1d82e926ec794901d17c78024a50270940304540a733656f0d60405160405180910390a45b5050565b60006005600084815260200190815260200160002060000160008373ffffffffffffffffffffffffffffffffffffffff1673ffffffffffffffffffffffffffffffffffffffff16815260200190815260200160002060009054906101000a900460ff16905092915050565b600033905090565b828054620002cb90620003e4565b90600052602060002090601f016020900481019282620002ef57600085556200033b565b82601f106200030a57805160ff19168380011785556200033b565b828001600101855582156200033b579182015b828111156200033a5782518255916020019190600101906200031d565b5b5090506200034a91906200034e565b5090565b5b80821115620003695760008160009055506001016200034f565b5090565b6000815190506200037e8162000449565b92915050565b6000602082840312156200039757600080fd5b6000620003a7848285016200036d565b91505092915050565b6000620003bd82620003c4565b9050919050565b600073ffffffffffffffffffffffffffffffffffffffff82169050919050565b60006002820490506001821680620003fd57607f821691505b602082108114156200041457620004136200041a565b5b50919050565b7f4e487b7100000000000000000000000000000000000000000000000000000000600052602260045260246000fd5b6200045481620003b0565b81146200046057600080fd5b50565b61270c80620004736000396000f3fe608060405234801561001057600080fd5b50600436106101425760003560e01c806340c10f19116100b8578063a217fddf1161007c578063a217fddf1461039d578063a457c2d7146103bb578063a9059cbb146103eb578063d53913931461041b578063d547741f14610439578063dd62ed3e1461045557610142565b806340c10f19146102e757806370a082311461030357806391d148541461033357806395d89b41146103635780639dc29fac1461038157610142565b8063248a9ca31161010a578063248a9ca314610213578063282c51f3146102435780632f2ff15d14610261578063313ce5671461027d57806336568abe1461029b57806339509351146102b757610142565b806301ffc9a71461014757806306fdde0314610177578063095ea7b31461019557806318160ddd146101c557806323b872dd146101e3575b600080fd5b610161600480360381019061015c9190611b39565b610485565b60405161016e9190612198565b60405180910390f35b61017f6104ff565b60405161018c91906121ce565b60405180910390f35b6101af60048036038101906101aa9190611a98565b610591565b6040516101bc9190612198565b60405180910390f35b6101cd6105b4565b6040516101da91906123b0565b60405180910390f35b6101fd60048036038101906101f89190611a49565b6105be565b60405161020a9190612198565b60405180910390f35b61022d60048036038101906102289190611ad4565b6105ed565b60405161023a91906121b3565b60405180910390f35b61024b61060d565b60405161025891906121b3565b60405180910390f35b61027b60048036038101906102769190611afd565b610631565b005b61028561065a565b60405161029291906123cb565b60405180910390f35b6102b560048036038101906102b09190611afd565b610663565b005b6102d160048036038101906102cc9190611a98565b6106e6565b6040516102de9190612198565b60405180910390f35b61030160048036038101906102fc9190611a98565b610790565b005b61031d600480360381019061031891906119e4565b610807565b60405161032a91906123b0565b60405180910390f35b61034d60048036038101906103489190611afd565b61084f565b60405161035a9190612198565b60405180910390f35b61036b6108ba565b60405161037891906121ce565b60405180910390f35b61039b60048036038101906103969190611a98565b61094c565b005b6103a56109c3565b6040516103b291906121b3565b60405180910390f35b6103d560048036038101906103d09190611a98565b6109ca565b6040516103e29190612198565b60405180910390f35b61040560048036038101906104009190611a98565b610ab4565b6040516104129190612198565b60405180910390f35b610423610ad7565b60405161043091906121b3565b60405180910390f35b610453600480360381019061044e9190611afd565b610afb565b005b61046f600480360381019061046a9190611a0d565b610b24565b60405161047c91906123b0565b60405180910390f35b60007f7965db0b000000000000000000000000000000000000000000000000000000007bffffffffffffffffffffffffffffffffffffffffffffffffffffffff1916827bffffffffffffffffffffffffffffffffffffffffffffffffffffffff191614806104f857506104f782610bab565b5b9050919050565b60606003805461050e906125d9565b80601f016020809104026020016040519081016040528092919081815260200182805461053a906125d9565b80156105875780601f1061055c57610100808354040283529160200191610587565b820191906000526020600020905b81548152906001019060200180831161056a57829003601f168201915b5050505050905090565b60008061059c610c15565b90506105a9818585610c1d565b600191505092915050565b6000600254905090565b6000806105c9610c15565b90506105d6858285610de8565b6105e1858585610e74565b60019150509392505050565b600060056000838152602001908152602001600020600101549050919050565b7f3c11d16cbaffd01df69ce1c404f6340ee057498f5f00246190ea54220576a84881565b61063a826105ed565b61064b81610646610c15565b6110f5565b6106558383611192565b505050565b60006012905090565b61066b610c15565b73ffffffffffffffffffffffffffffffffffffffff168173ffffffffffffffffffffffffffffffffffffffff16146106d8576040517f08c379a00000000000000000000000000000000000000000000000000000000081526004016106cf90612370565b60405180910390fd5b6106e28282611273565b5050565b6000806106f1610c15565b9050610785818585600160008673ffffffffffffffffffffffffffffffffffffffff1673ffffffffffffffffffffffffffffffffffffffff16815260200190815260200160002060008973ffffffffffffffffffffffffffffffffffffffff1673ffffffffffffffffffffffffffffffffffffffff16815260200190815260200160002054610780919061240d565b610c1d565b600191505092915050565b6107ba7f9f2df0fed2c77648de5860a4cc508cd0818c85b8b8a1ab4ceeef8d981c8956a63361084f565b6107f9576040517f08c379a00000000000000000000000000000000000000000000000000000000081526004016107f0906122b0565b60405180910390fd5b6108038282611355565b5050565b60008060008373ffffffffffffffffffffffffffffffffffffffff1673ffffffffffffffffffffffffffffffffffffffff168152602001908152602001600020549050919050565b60006005600084815260200190815260200160002060000160008373ffffffffffffffffffffffffffffffffffffffff1673ffffffffffffffffffffffffffffffffffffffff16815260200190815260200160002060009054906101000a900460ff16905092915050565b6060600480546108c9906125d9565b80601f01602080910402602001604051908101604052809291908181526020018280546108f5906125d9565b80156109425780601f1061091757610100808354040283529160200191610942565b820191906000526020600020905b81548152906001019060200180831161092557829003601f168201915b5050505050905090565b6109767f3c11d16cbaffd01df69ce1c404f6340ee057498f5f00246190ea54220576a8483361084f565b6109b5576040517f08c379a00000000000000000000000000000000000000000000000000000000081526004016109ac906122d0565b60405180910390fd5b6109bf82826114b5565b5050565b6000801b81565b6000806109d5610c15565b90506000600160008373ffffffffffffffffffffffffffffffffffffffff1673ffffffffffffffffffffffffffffffffffffffff16815260200190815260200160002060008673ffffffffffffffffffffffffffffffffffffffff1673ffffffffffffffffffffffffffffffffffffffff16815260200190815260200160002054905083811015610a9b576040517f08c379a0000000000000000000000000000000000000000000000000000000008152600401610a9290612350565b60405180910390fd5b610aa88286868403610c1d565b60019250505092915050565b600080610abf610c15565b9050610acc818585610e74565b600191505092915050565b7f9f2df0fed2c77648de5860a4cc508cd0818c85b8b8a1ab4ceeef8d981c8956a681565b610b04826105ed565b610b1581610b10610c15565b6110f5565b610b1f8383611273565b505050565b6000600160008473ffffffffffffffffffffffffffffffffffffffff1673ffffffffffffffffffffffffffffffffffffffff16815260200190815260200160002060008373ffffffffffffffffffffffffffffffffffffffff1673ffffffffffffffffffffffffffffffffffffffff16815260200190815260200160002054905092915050565b60007f01ffc9a7000000000000000000000000000000000000000000000000000000007bffffffffffffffffffffffffffffffffffffffffffffffffffffffff1916827bffffffffffffffffffffffffffffffffffffffffffffffffffffffff1916149050919050565b600033905090565b600073ffffffffffffffffffffffffffffffffffffffff168373ffffffffffffffffffffffffffffffffffffffff161415610c8d576040517f08c379a0000000000000000000000000000000000000000000000000000000008152600401610c8490612330565b60405180910390fd5b600073ffffffffffffffffffffffffffffffffffffffff168273ffffffffffffffffffffffffffffffffffffffff161415610cfd576040517f08c379a0000000000000000000000000000000000000000000000000000000008152600401610cf490612250565b60405180910390fd5b80600160008573ffffffffffffffffffffffffffffffffffffffff1673ffffffffffffffffffffffffffffffffffffffff16815260200190815260200160002060008473ffffffffffffffffffffffffffffffffffffffff1673ffffffffffffffffffffffffffffffffffffffff168152602001908152602001600020819055508173ffffffffffffffffffffffffffffffffffffffff168373ffffffffffffffffffffffffffffffffffffffff167f8c5be1e5ebec7d5bd14f71427d1e84f3dd0314c0f7b2291e5b200ac8c7c3b92583604051610ddb91906123b0565b60405180910390a3505050565b6000610df48484610b24565b90507fffffffffffffffffffffffffffffffffffffffffffffffffffffffffffffffff8114610e6e5781811015610e60576040517f08c379a0000000000000000000000000000000000000000000000000000000008152600401610e5790612270565b60405180910390fd5b610e6d8484848403610c1d565b5b50505050565b600073ffffffffffffffffffffffffffffffffffffffff168373ffffffffffffffffffffffffffffffffffffffff161415610ee4576040517f08c379a0000000000000000000000000000000000000000000000000000000008152600401610edb90612310565b60405180910390fd5b600073ffffffffffffffffffffffffffffffffffffffff168273ffffffffffffffffffffffffffffffffffffffff161415610f54576040517f08c379a0000000000000000000000000000000000000000000000000000000008152600401610f4b90612210565b60405180910390fd5b610f5f83838361168c565b60008060008573ffffffffffffffffffffffffffffffffffffffff1673ffffffffffffffffffffffffffffffffffffffff16815260200190815260200160002054905081811015610fe5576040517f08c379a0000000000000000000000000000000000000000000000000000000008152600401610fdc90612290565b60405180910390fd5b8181036000808673ffffffffffffffffffffffffffffffffffffffff1673ffffffffffffffffffffffffffffffffffffffff16815260200190815260200160002081905550816000808573ffffffffffffffffffffffffffffffffffffffff1673ffffffffffffffffffffffffffffffffffffffff1681526020019081526020016000206000828254611078919061240d565b925050819055508273ffffffffffffffffffffffffffffffffffffffff168473ffffffffffffffffffffffffffffffffffffffff167fddf252ad1be2c89b69c2b068fc378daa952ba7f163c4a11628f55a4df523b3ef846040516110dc91906123b0565b60405180910390a36110ef848484611691565b50505050565b6110ff828261084f565b61118e576111248173ffffffffffffffffffffffffffffffffffffffff166014611696565b6111328360001c6020611696565b60405160200161114392919061215e565b6040516020818303038152906040526040517f08c379a000000000000000000000000000000000000000000000000000000000815260040161118591906121ce565b60405180910390fd5b5050565b61119c828261084f565b61126f5760016005600084815260200190815260200160002060000160008373ffffffffffffffffffffffffffffffffffffffff1673ffffffffffffffffffffffffffffffffffffffff16815260200190815260200160002060006101000a81548160ff021916908315150217905550611214610c15565b73ffffffffffffffffffffffffffffffffffffffff168173ffffffffffffffffffffffffffffffffffffffff16837f2f8788117e7eff1d82e926ec794901d17c78024a50270940304540a733656f0d60405160405180910390a45b5050565b61127d828261084f565b156113515760006005600084815260200190815260200160002060000160008373ffffffffffffffffffffffffffffffffffffffff1673ffffffffffffffffffffffffffffffffffffffff16815260200190815260200160002060006101000a81548160ff0219169083151502179055506112f6610c15565b73ffffffffffffffffffffffffffffffffffffffff168173ffffffffffffffffffffffffffffffffffffffff16837ff6391f5c32d9c69d2a47ea670b442974b53935d1edc7fd64eb21e047a839171b60405160405180910390a45b5050565b600073ffffffffffffffffffffffffffffffffffffffff168273ffffffffffffffffffffffffffffffffffffffff1614156113c5576040517f08c379a00000000000000000000000000000000000000000000000000000000081526004016113bc90612390565b60405180910390fd5b6113d16000838361168c565b80600260008282546113e3919061240d565b92505081905550806000808473ffffffffffffffffffffffffffffffffffffffff1673ffffffffffffffffffffffffffffffffffffffff1681526020019081526020016000206000828254611438919061240d565b925050819055508173ffffffffffffffffffffffffffffffffffffffff16600073ffffffffffffffffffffffffffffffffffffffff167fddf252ad1be2c89b69c2b068fc378daa952ba7f163c4a11628f55a4df523b3ef8360405161149d91906123b0565b60405180910390a36114b160008383611691565b5050565b600073ffffffffffffffffffffffffffffffffffffffff168273ffffffffffffffffffffffffffffffffffffffff161415611525576040517f08c379a000000000000000000000000000000000000000000000000000000000815260040161151c906122f0565b60405180910390fd5b6115318260008361168c565b60008060008473ffffffffffffffffffffffffffffffffffffffff1673ffffffffffffffffffffffffffffffffffffffff168152602001908152602001600020549050818110156115b7576040517f08c379a00000000000000000000000000000000000000000000000000000000081526004016115ae90612230565b60405180910390fd5b8181036000808573ffffffffffffffffffffffffffffffffffffffff1673ffffffffffffffffffffffffffffffffffffffff16815260200190815260200160002081905550816002600082825461160e91906124bd565b92505081905550600073ffffffffffffffffffffffffffffffffffffffff168373ffffffffffffffffffffffffffffffffffffffff167fddf252ad1be2c89b69c2b068fc378daa952ba7f163c4a11628f55a4df523b3ef8460405161167391906123b0565b60405180910390a361168783600084611691565b505050565b505050565b505050565b6060600060028360026116a99190612463565b6116b3919061240d565b67ffffffffffffffff8111156116f2577f4e487b7100000000000000000000000000000000000000000000000000000000600052604160045260246000fd5b6040519080825280601f01601f1916602001820160405280156117245781602001600182028036833780820191505090505b5090507f300000000000000000000000000000000000000000000000000000000000000081600081518110611782577f4e487b7100000000000000000000000000000000000000000000000000000000600052603260045260246000fd5b60200101907effffffffffffffffffffffffffffffffffffffffffffffffffffffffffffff1916908160001a9053507f78000000000000000000000000000000000000000000000000000000000000008160018151811061180c577f4e487b7100000000000000000000000000000000000000000000000000000000600052603260045260246000fd5b60200101907effffffffffffffffffffffffffffffffffffffffffffffffffffffffffffff1916908160001a9053506000600184600261184c9190612463565b611856919061240d565b90505b6001811115611942577f3031323334353637383961626364656600000000000000000000000000000000600f8616601081106118be577f4e487b7100000000000000000000000000000000000000000000000000000000600052603260045260246000fd5b1a60f81b8282815181106118fb577f4e487b7100000000000000000000000000000000000000000000000000000000600052603260045260246000fd5b60200101907effffffffffffffffffffffffffffffffffffffffffffffffffffffffffffff1916908160001a905350600485901c94508061193b906125af565b9050611859565b5060008414611986576040517f08c379a000000000000000000000000000000000000000000000000000000000815260040161197d906121f0565b60405180910390fd5b8091505092915050565b60008135905061199f8161267a565b92915050565b6000813590506119b481612691565b92915050565b6000813590506119c9816126a8565b92915050565b6000813590506119de816126bf565b92915050565b6000602082840312156119f657600080fd5b6000611a0484828501611990565b91505092915050565b60008060408385031215611a2057600080fd5b6000611a2e85828601611990565b9250506020611a3f85828601611990565b9150509250929050565b600080600060608486031215611a5e57600080fd5b6000611a6c86828701611990565b9350506020611a7d86828701611990565b9250506040611a8e868287016119cf565b9150509250925092565b60008060408385031215611aab57600080fd5b6000611ab985828601611990565b9250506020611aca858286016119cf565b9150509250929050565b600060208284031215611ae657600080fd5b6000611af4848285016119a5565b91505092915050565b60008060408385031215611b1057600080fd5b6000611b1e858286016119a5565b9250506020611b2f85828601611990565b9150509250929050565b600060208284031215611b4b57600080fd5b6000611b59848285016119ba565b91505092915050565b611b6b81612503565b82525050565b611b7a8161250f565b82525050565b6000611b8b826123e6565b611b9581856123f1565b9350611ba581856020860161257c565b611bae81612669565b840191505092915050565b6000611bc4826123e6565b611bce8185612402565b9350611bde81856020860161257c565b80840191505092915050565b6000611bf76020836123f1565b91507f537472696e67733a20686578206c656e67746820696e73756666696369656e746000830152602082019050919050565b6000611c376023836123f1565b91507f45524332303a207472616e7366657220746f20746865207a65726f206164647260008301527f65737300000000000000000000000000000000000000000000000000000000006020830152604082019050919050565b6000611c9d6022836123f1565b91507f45524332303a206275726e20616d6f756e7420657863656564732062616c616e60008301527f63650000000000000000000000000000000000000000000000000000000000006020830152604082019050919050565b6000611d036022836123f1565b91507f45524332303a20617070726f766520746f20746865207a65726f20616464726560008301527f73730000000000000000000000000000000000000000000000000000000000006020830152604082019050919050565b6000611d69601d836123f1565b91507f45524332303a20696e73756666696369656e7420616c6c6f77616e63650000006000830152602082019050919050565b6000611da96026836123f1565b91507f45524332303a207472616e7366657220616d6f756e742065786365656473206260008301527f616c616e636500000000000000000000000000000000000000000000000000006020830152604082019050919050565b6000611e0f6016836123f1565b91507f43616c6c6572206973206e6f742061206d696e746572000000000000000000006000830152602082019050919050565b6000611e4f6016836123f1565b91507f43616c6c6572206973206e6f742061206275726e6572000000000000000000006000830152602082019050919050565b6000611e8f6021836123f1565b91507f45524332303a206275726e2066726f6d20746865207a65726f2061646472657360008301527f73000000000000000000000000000000000000000000000000000000000000006020830152604082019050919050565b6000611ef56025836123f1565b91507f45524332303a207472616e736665722066726f6d20746865207a65726f20616460008301527f64726573730000000000000000000000000000000000000000000000000000006020830152604082019050919050565b6000611f5b6024836123f1565b91507f45524332303a20617070726f76652066726f6d20746865207a65726f2061646460008301527f72657373000000000000000000000000000000000000000000000000000000006020830152604082019050919050565b6000611fc1601783612402565b91507f416363657373436f6e74726f6c3a206163636f756e74200000000000000000006000830152601782019050919050565b60006120016025836123f1565b91507f45524332303a2064656372656173656420616c6c6f77616e63652062656c6f7760008301527f207a65726f0000000000000000000000000000000000000000000000000000006020830152604082019050919050565b6000612067601183612402565b91507f206973206d697373696e6720726f6c65200000000000000000000000000000006000830152601182019050919050565b60006120a7602f836123f1565b91507f416363657373436f6e74726f6c3a2063616e206f6e6c792072656e6f756e636560008301527f20726f6c657320666f722073656c6600000000000000000000000000000000006020830152604082019050919050565b600061210d601f836123f1565b91507f45524332303a206d696e7420746f20746865207a65726f2061646472657373006000830152602082019050919050565b61214981612565565b82525050565b6121588161256f565b82525050565b600061216982611fb4565b91506121758285611bb9565b91506121808261205a565b915061218c8284611bb9565b91508190509392505050565b60006020820190506121ad6000830184611b62565b92915050565b60006020820190506121c86000830184611b71565b92915050565b600060208201905081810360008301526121e88184611b80565b905092915050565b6000602082019050818103600083015261220981611bea565b9050919050565b6000602082019050818103600083015261222981611c2a565b9050919050565b6000602082019050818103600083015261224981611c90565b9050919050565b6000602082019050818103600083015261226981611cf6565b9050919050565b6000602082019050818103600083015261228981611d5c565b9050919050565b600060208201905081810360008301526122a981611d9c565b9050919050565b600060208201905081810360008301526122c981611e02565b9050919050565b600060208201905081810360008301526122e981611e42565b9050919050565b6000602082019050818103600083015261230981611e82565b9050919050565b6000602082019050818103600083015261232981611ee8565b9050919050565b6000602082019050818103600083015261234981611f4e565b9050919050565b6000602082019050818103600083015261236981611ff4565b9050919050565b600060208201905081810360008301526123898161209a565b9050919050565b600060208201905081810360008301526123a981612100565b9050919050565b60006020820190506123c56000830184612140565b92915050565b60006020820190506123e0600083018461214f565b92915050565b600081519050919050565b600082825260208201905092915050565b600081905092915050565b600061241882612565565b915061242383612565565b9250827fffffffffffffffffffffffffffffffffffffffffffffffffffffffffffffffff038211156124585761245761260b565b5b828201905092915050565b600061246e82612565565b915061247983612565565b9250817fffffffffffffffffffffffffffffffffffffffffffffffffffffffffffffffff04831182151516156124b2576124b161260b565b5b828202905092915050565b60006124c882612565565b91506124d383612565565b9250828210156124e6576124e561260b565b5b828203905092915050565b60006124fc82612545565b9050919050565b60008115159050919050565b6000819050919050565b60007fffffffff0000000000000000000000000000000000000000000000000000000082169050919050565b600073ffffffffffffffffffffffffffffffffffffffff82169050919050565b6000819050919050565b600060ff82169050919050565b60005b8381101561259a57808201518184015260208101905061257f565b838111156125a9576000848401525b50505050565b60006125ba82612565565b915060008214156125ce576125cd61260b565b5b600182039050919050565b600060028204905060018216806125f157607f821691505b602082108114156126055761260461263a565b5b50919050565b7f4e487b7100000000000000000000000000000000000000000000000000000000600052601160045260246000fd5b7f4e487b7100000000000000000000000000000000000000000000000000000000600052602260045260246000fd5b6000601f19601f8301169050919050565b612683816124f1565b811461268e57600080fd5b50565b61269a8161250f565b81146126a557600080fd5b50565b6126b181612519565b81146126bc57600080fd5b50565b6126c881612565565b81146126d357600080fd5b5056fea2646970667358221220998fa4ab6008b514da8f2095dcc3f7c2c558f0860dcd96817b2b09a787166be464736f6c63430008000033",
  "linkReferences": {},
  "deployedLinkReferences": {}
}